{"abi":[{"type":"constructor","inputs":[],"stateMutability":"nonpayable"},{"type":"receive","stateMutability":"payable"},{"type":"function","name":"IP_ASSET_REGISTRY","inputs":[],"outputs":[{"name":"","type":"address","internalType":"contract IPAssetRegistry"}],"stateMutability":"view"},{"type":"function","name":"REGISTRATION_WORKFLOWS","inputs":[],"outputs":[{"name":"","type":"address","internalType":"contract RegistrationWorkflows"}],"stateMutability":"view"},{"type":"function","name":"UNLOCK_BLOCK_TIME","inputs":[],"outputs":[{"name":"","type":"uint256","internalType":"uint256"}],"stateMutability":"view"},{"type":"function","name":"UPGRADE_INTERFACE_VERSION","inputs":[],"outputs":[{"name":"","type":"string","internalType":"string"}],"stateMutability":"view"},{"type":"function","name":"batcherWallet","inputs":[],"outputs":[{"name":"","type":"address","internalType":"address"}],"stateMutability":"view"},{"type":"function","name":"initialize","inputs":[{"name":"ipAssetRegistryAddress","type":"address","internalType":"address"},{"name":"registrationWorkflowsAddress","type":"address","internalType":"address"},{"name":"piLicenseTemplateAddress","type":"address","internalType":"address"},{"name":"royaltyPolicyLAPAddress","type":"address","internalType":"address"},{"name":"licensingModuleAddress","type":"address","internalType":"address"},{"name":"owner","type":"address","internalType":"address"},{"name":"_batcherWallet","type":"address","internalType":"address"}],"outputs":[],"stateMutability":"nonpayable"},{"type":"function","name":"lock","inputs":[],"outputs":[],"stateMutability":"nonpayable"},{"type":"function","name":"owner","inputs":[],"outputs":[{"name":"","type":"address","internalType":"address"}],"stateMutability":"view"},{"type":"function","name":"proxiableUUID","inputs":[],"outputs":[{"name":"","type":"bytes32","internalType":"bytes32"}],"stateMutability":"view"},{"type":"function","name":"register","inputs":[{"name":"receiver","type":"address","internalType":"address"},{"name":"_ipMetadata","type":"tuple","internalType":"struct ForgeRegistry.IPMetadata","components":[{"name":"name","type":"string","internalType":"string"},{"name":"ipMetadataURI","type":"string","internalType":"string"},{"name":"ipMetadata","type":"string","internalType":"string"},{"name":"nftMetadataURI","type":"string","internalType":"string"},{"name":"nftMetadata","type":"string","internalType":"string"}]},{"name":"appId","type":"string","internalType":"string"},{"name":"submitter","type":"address","internalType":"address"}],"outputs":[{"name":"ipId","type":"address","internalType":"address"},{"name":"tokenId","type":"uint256","internalType":"uint256"},{"name":"owner","type":"address","internalType":"address"},{"name":"ipMetadataURI","type":"string","internalType":"string"},{"name":"nftMetadataURI","type":"string","internalType":"string"}],"stateMutability":"nonpayable"},{"type":"function","name":"reinitialize","inputs":[{"name":"ipAssetRegistryAddress","type":"address","internalType":"address"},{"name":"registrationWorkflowsAddress","type":"address","internalType":"address"},{"name":"piLicenseTemplateAddress","type":"address","internalType":"address"},{"name":"royaltyPolicyLAPAddress","type":"address","internalType":"address"},{"name":"licensingModuleAddress","type":"address","internalType":"address"},{"name":"owner","type":"address","internalType":"address"},{"name":"_batcherWallet","type":"address","internalType":"address"}],"outputs":[],"stateMutability":"nonpayable"},{"type":"function","name":"renounceOwnership","inputs":[],"outputs":[],"stateMutability":"nonpayable"},{"type":"function","name":"transferOwnership","inputs":[{"name":"newOwner","type":"address","internalType":"address"}],"outputs":[],"stateMutability":"nonpayable"},{"type":"function","name":"unlock","inputs":[],"outputs":[],"stateMutability":"nonpayable"},{"type":"function","name":"upgradeToAndCall","inputs":[{"name":"newImplementation","type":"address","internalType":"address"},{"name":"data","type":"bytes","internalType":"bytes"}],"outputs":[],"stateMutability":"payable"},{"type":"function","name":"userData","inputs":[{"name":"","type":"address","internalType":"address"}],"outputs":[{"name":"balance","type":"uint256","internalType":"uint256"},{"name":"unlockBlockTime","type":"uint256","internalType":"uint256"},{"name":"nonce","type":"uint256","internalType":"uint256"}],"stateMutability":"view"},{"type":"function","name":"user_balances","inputs":[{"name":"account","type":"address","internalType":"address"}],"outputs":[{"name":"","type":"uint256","internalType":"uint256"}],"stateMutability":"view"},{"type":"function","name":"user_nonces","inputs":[{"name":"account","type":"address","internalType":"address"}],"outputs":[{"name":"","type":"uint256","internalType":"uint256"}],"stateMutability":"view"},{"type":"function","name":"user_unlock_block","inputs":[{"name":"account","type":"address","internalType":"address"}],"outputs":[{"name":"","type":"uint256","internalType":"uint256"}],"stateMutability":"view"},{"type":"function","name":"withdraw","inputs":[{"name":"amount","type":"uint256","internalType":"uint256"}],"outputs":[],"stateMutability":"nonpayable"},{"type":"event","name":"BalanceLocked","inputs":[{"name":"user","type":"address","indexed":true,"internalType":"address"}],"anonymous":false},{"type":"event","name":"BalanceUnlocked","inputs":[{"name":"user","type":"address","indexed":true,"internalType":"address"},{"name":"unlockBlockTime","type":"uint256","indexed":false,"internalType":"uint256"}],"anonymous":false},{"type":"event","name":"FundsWithdrawn","inputs":[{"name":"recipient","type":"address","indexed":true,"internalType":"address"},{"name":"amount","type":"uint256","indexed":true,"internalType":"uint256"}],"anonymous":false},{"type":"event","name":"IPRegistered","inputs":[{"name":"ipId","type":"address","indexed":true,"internalType":"address"},{"name":"tokenId","type":"uint256","indexed":true,"internalType":"uint256"},{"name":"owner","type":"address","indexed":true,"internalType":"address"},{"name":"ipMetadataURI","type":"string","indexed":false,"internalType":"string"},{"name":"nftMetadataURI","type":"string","indexed":false,"internalType":"string"},{"name":"appId","type":"string","indexed":false,"internalType":"string"}],"anonymous":false},{"type":"event","name":"Initialized","inputs":[{"name":"version","type":"uint64","indexed":false,"internalType":"uint64"}],"anonymous":false},{"type":"event","name":"OwnershipTransferred","inputs":[{"name":"previousOwner","type":"address","indexed":true,"internalType":"address"},{"name":"newOwner","type":"address","indexed":true,"internalType":"address"}],"anonymous":false},{"type":"event","name":"PaymentReceived","inputs":[{"name":"sender","type":"address","indexed":true,"internalType":"address"},{"name":"amount","type":"uint256","indexed":true,"internalType":"uint256"}],"anonymous":false},{"type":"event","name":"Upgraded","inputs":[{"name":"implementation","type":"address","indexed":true,"internalType":"address"}],"anonymous":false},{"type":"error","name":"AddressEmptyCode","inputs":[{"name":"target","type":"address","internalType":"address"}]},{"type":"error","name":"ERC1967InvalidImplementation","inputs":[{"name":"implementation","type":"address","internalType":"address"}]},{"type":"error","name":"ERC1967NonPayable","inputs":[]},{"type":"error","name":"FailedCall","inputs":[]},{"type":"error","name":"FundsLocked","inputs":[{"name":"unlockBlockTime","type":"uint256","internalType":"uint256"},{"name":"currentBlockTime","type":"uint256","internalType":"uint256"}]},{"type":"error","name":"InvalidAddress","inputs":[{"name":"param","type":"string","internalType":"string"}]},{"type":"error","name":"InvalidInitialization","inputs":[]},{"type":"error","name":"NoSubmitter","inputs":[]},{"type":"error","name":"NotInitializing","inputs":[]},{"type":"error","name":"OnlyBatcherAllowed","inputs":[{"name":"caller","type":"address","internalType":"address"}]},{"type":"error","name":"OwnableInvalidOwner","inputs":[{"name":"owner","type":"address","internalType":"address"}]},{"type":"error","name":"OwnableUnauthorizedAccount","inputs":[{"name":"account","type":"address","internalType":"address"}]},{"type":"error","name":"PayerInsufficientBalance","inputs":[{"name":"balance","type":"uint256","internalType":"uint256"},{"name":"amount","type":"uint256","internalType":"uint256"}]},{"type":"error","name":"ReentrancyGuardReentrantCall","inputs":[]},{"type":"error","name":"SubmissionInsufficientBalance","inputs":[{"name":"sender","type":"address","internalType":"address"},{"name":"balance","type":"uint256","internalType":"uint256"},{"name":"required","type":"uint256","internalType":"uint256"}]},{"type":"error","name":"UUPSUnauthorizedCallContext","inputs":[]},{"type":"error","name":"UUPSUnsupportedProxiableUUID","inputs":[{"name":"slot","type":"bytes32","internalType":"bytes32"}]},{"type":"error","name":"UserHasNoFundsToLock","inputs":[{"name":"user","type":"address","internalType":"address"}]},{"type":"error","name":"UserHasNoFundsToUnlock","inputs":[{"name":"user","type":"address","internalType":"address"}]}],"bytecode":{"object":"0x60a080604052346100e857306080527ff0c57e16840df040f15088dc2f81fe391c3923bec73e23a9662efc9c229c6a005460ff8160401c166100d9576002600160401b03196001600160401b03821601610073575b604051612a3990816100ed8239608051818181611a4c0152611b200152f35b6001600160401b0319166001600160401b039081177ff0c57e16840df040f15088dc2f81fe391c3923bec73e23a9662efc9c229c6a005581527fc7f505b2f371ae2175ee4913f4499e1f2633a7b5936321eed1cdaeb6115181d290602090a15f80610054565b63f92ee8a960e01b5f5260045ffd5b5f80fdfe60808060405260043610156100c6575b50361561001a575f80fd5b61002261270c565b335f52600160205260405f208054903482018092116100995755335f5260016020525f600160408220015534337f6ef95f06320e7a25a04a175ca677b7052bdd97131872c2192525a629f51be7705f80a360017f9b779b17422d0df92223018b32b4d1fa46e071723d6817e2486d003becc55f0055005b7f4e487b71000000000000000000000000000000000000000000000000000000005f52601160045260245ffd5b5f905f3560e01c9081630e59bdd8146123f85750806317d89c4e146123b05780632df4e21e1461236b5780632e1a7d4d146122365780633587647614611e5a57806341c782c514611e275780634d5431ea14611ddf5780634f1ef28614611ac457806352d1902d14611a2557806358b96e27146119f3578063715018a61461193757806373e289d01461191b5780638da5cb5b146118c9578063a69df4b5146117fe578063ad3cb1cc1461179f578063c891091314611743578063d1b24ae1146107dc578063d7d7166e1461028d578063f2fde38b146102605763f83d08ba0361000f573461025d578060031936011261025d576101c261270c565b3381526001602052604081205415610231573381526001602052806001604082200155337fc5f84593e7086c66a205abab7ee44e1a8e6db58e50bf18ca46cb8239118b5ecd8280a260017f9b779b17422d0df92223018b32b4d1fa46e071723d6817e2486d003becc55f005580f35b807f6cc12bc2000000000000000000000000000000000000000000000000000000006024925233600452fd5b80fd5b503461025d57602060031936011261025d5761028a61027d612428565b610285612783565b6126b9565b80f35b503461025d5761029c3661244b565b939094957ff0c57e16840df040f15088dc2f81fe391c3923bec73e23a9662efc9c229c6a009392935460ff8160401c1680156107c7575b61079f577fffffffffffffffffffffffffffffffffffffffffffffff0000000000000000001668010000000000000002177ff0c57e16840df040f15088dc2f81fe391c3923bec73e23a9662efc9c229c6a005573ffffffffffffffffffffffffffffffffffffffff169586156107405773ffffffffffffffffffffffffffffffffffffffff169081156106e15773ffffffffffffffffffffffffffffffffffffffff169182156106825773ffffffffffffffffffffffffffffffffffffffff169283156106235773ffffffffffffffffffffffffffffffffffffffff169384156105c45773ffffffffffffffffffffffffffffffffffffffff16958615610565576104d1967fffffffffffffffffffffffff00000000000000000000000000000000000000008954161788557fffffffffffffffffffffffff0000000000000000000000000000000000000000601a541617601a557fffffffffffffffffffffffff0000000000000000000000000000000000000000601b541617601b557fffffffffffffffffffffffff0000000000000000000000000000000000000000601c541617601c557fffffffffffffffffffffffff0000000000000000000000000000000000000000601d541617601d557fffffffffffffffffffffffff0000000000000000000000000000000000000000601e541617601e556127ef565b7fffffffffffffffffffffffffffffffffffffffffffffff00ffffffffffffffff7ff0c57e16840df040f15088dc2f81fe391c3923bec73e23a9662efc9c229c6a0054167ff0c57e16840df040f15088dc2f81fe391c3923bec73e23a9662efc9c229c6a00557fc7f505b2f371ae2175ee4913f4499e1f2633a7b5936321eed1cdaeb6115181d2602060405160028152a180f35b6040517f161eb54200000000000000000000000000000000000000000000000000000000815260206004820152600d60248201527f6261746368657257616c6c6574000000000000000000000000000000000000006044820152606490fd5b6040517f161eb54200000000000000000000000000000000000000000000000000000000815260206004820152601660248201527f6c6963656e73696e674d6f64756c6541646472657373000000000000000000006044820152606490fd5b6040517f161eb54200000000000000000000000000000000000000000000000000000000815260206004820152601760248201527f726f79616c7479506f6c6963794c4150416464726573730000000000000000006044820152606490fd5b6040517f161eb54200000000000000000000000000000000000000000000000000000000815260206004820152601860248201527f70694c6963656e736554656d706c6174654164647265737300000000000000006044820152606490fd5b6040517f161eb54200000000000000000000000000000000000000000000000000000000815260206004820152601c60248201527f726567697374726174696f6e576f726b666c6f777341646472657373000000006044820152606490fd5b6040517f161eb54200000000000000000000000000000000000000000000000000000000815260206004820152601660248201527f69704173736574526567697374727941646472657373000000000000000000006044820152606490fd5b6004897ff92ee8a9000000000000000000000000000000000000000000000000000000008152fd5b50600267ffffffffffffffff821610156102d3565b5034611516576080600319360112611516576107f6612428565b6024359067ffffffffffffffff82116115165760a06003198336030112611516576040519060a0820182811067ffffffffffffffff8211176115d057604052826004013567ffffffffffffffff811161151657610859906004369186010161266d565b8252602483013567ffffffffffffffff81116115165761087f906004369186010161266d565b6020830152604483013567ffffffffffffffff8111611516576108a8906004369186010161266d565b9260408301938452606481013567ffffffffffffffff8111611516576108d4906004369184010161266d565b606084015260848101359067ffffffffffffffff82116115165760046108fd923692010161266d565b906080830191825260443567ffffffffffffffff81116115165761092590369060040161266d565b60643573ffffffffffffffffffffffffffffffffffffffff811681036115165773ffffffffffffffffffffffffffffffffffffffff5f541633036117175761096b61270c565b73ffffffffffffffffffffffffffffffffffffffff8316156116b9578451511561165b5773ffffffffffffffffffffffffffffffffffffffff8116156115fd575a9685519173ffffffffffffffffffffffffffffffffffffffff601b54169260405190610160820182811067ffffffffffffffff8211176115d05760405281526040968751946109fb8987612579565b60058652602086017f494e474f5400000000000000000000000000000000000000000000000000000090526020830195865260209586918a5194610a3f8487612579565b5f86528b8101958652838b8d8051610a578482612579565b5f81526060850190815260808501926064845260a086015f815260c087015f815260e088019173ffffffffffffffffffffffffffffffffffffffff8416835261010089019373ffffffffffffffffffffffffffffffffffffffff168452610120890194600186526101408a019660018852519e8f9c8d9b8c9b7fe80fe52f000000000000000000000000000000000000000000000000000000008d5260048d01525160248c0161016090526101848c01610b109161262a565b9051908b81037fffffffffffffffffffffffffffffffffffffffffffffffffffffffffffffffdc0160448d0152610b469161262a565b9051908a81037fffffffffffffffffffffffffffffffffffffffffffffffffffffffffffffffdc0160648c0152610b7c9161262a565b9051908981037fffffffffffffffffffffffffffffffffffffffffffffffffffffffffffffffdc0160848b0152610bb29161262a565b965163ffffffff1660a48901525160c48801525173ffffffffffffffffffffffffffffffffffffffff1660e48701525173ffffffffffffffffffffffffffffffffffffffff166101048601525173ffffffffffffffffffffffffffffffffffffffff1661012485015251151561014484015251151561016483015203915a905f91f19182156115c657908892915f9261158d575b50601b5473ffffffffffffffffffffffffffffffffffffffff16908351610c6c81612540565b606081528781015f9052848101606090526060015f905260208b01519b51845188818180820194805191829101865e81018281015f905203017fffffffffffffffffffffffffffffffffffffffffffffffffffffffffffffffe081018252610cd49082612579565b5190209060608c01519051855189818180820194805191829101865e81018281015f905203017fffffffffffffffffffffffffffffffffffffffffffffffffffffffffffffffe081018252610d299082612579565b519020918886519e8f90610d3c82612540565b81520152848d015260608c0152825180809c81947ff1c42a2200000000000000000000000000000000000000000000000000000000835273ffffffffffffffffffffffffffffffffffffffff16600483015273ffffffffffffffffffffffffffffffffffffffff8b1660248301526044820160809052805160848301608090526101048301610dca9161262a565b8982015160a484015286820151908381037fffffffffffffffffffffffffffffffffffffffffffffffffffffffffffffff7c0160c4850152610e0b9161262a565b906060015160e4830152606482016001905203915a905f91f1938415611583575f985f95611547575b5060208801519760608101519a6111338673ffffffffffffffffffffffffffffffffffffffff601d5416610e66612898565b50610e6f612898565b508b51610e7c8382612579565b5f81528c5191610e8b8361255c565b60018352838301525f8d8301525f606083015260016080830152600160a08301525f60c083015260e08201525f6101008201525f610120820152600161014082015260016101608201525f61018082015260016101a08201525f6101c08201525f6101e08201528b51610eff60a082612579565b607081527f68747470733a2f2f6769746875622e636f6d2f7069706c6162732f70696c2d64838201527f6f63756d656e742f626c6f622f393938633133653665653164303465623831378d8201527f6165666431666531366466653862653363643761322f6f66662d636861696e2d60608201527f7465726d732f43432d42592e6a736f6e00000000000000000000000000000000608082015261020082015273ffffffffffffffffffffffffffffffffffffffff601c54168c5f81518096819582947f6e1b8d9000000000000000000000000000000000000000000000000000000000845288600485015281511515602485015273ffffffffffffffffffffffffffffffffffffffff898301511660448501528101516064840152606081015160848401526080810151151560a484015260a0810151151560c484015273ffffffffffffffffffffffffffffffffffffffff60c08201511660e484015261020061107c60e083015161022061010487015261024486019061262a565b9163ffffffff610100820151166101248601526101208101516101448601526101408101511515610164860152610160810151151561018486015261018081015115156101a48601526101a081015115156101c48601526101c08101516101e486015273ffffffffffffffffffffffffffffffffffffffff6101e08201511661020486015201517fffffffffffffffffffffffffffffffffffffffffffffffffffffffffffffffdc8483030161022485015261262a565b03925af190811561150c575f9161151a575b5073ffffffffffffffffffffffffffffffffffffffff601e54169073ffffffffffffffffffffffffffffffffffffffff601c541691803b156115165760648e5f73ffffffffffffffffffffffffffffffffffffffff938f9582965197889687957f2a4130c0000000000000000000000000000000000000000000000000000000008752166004860152602485015260448401525af1801561150c576114f5575b506111f1905a9061268b565b3a8102908082043a14901517156114c857606e810290808204606e14901517156114c857606490049283471061146b5773ffffffffffffffffffffffffffffffffffffffff81168552600186528389862054106114145773ffffffffffffffffffffffffffffffffffffffff811685526001865260028986200180547fffffffffffffffffffffffffffffffffffffffffffffffffffffffffffffffff81146113e75788879692957f44874177fa70d91b3df35fc62739b47d20200a0c24135e12eedc5f73008b07668f938998978f8f9073ffffffffffffffffffffffffffffffffffffffff8f611346936113358f9e928f9e8f8f9161130991888a9281996113289f6001019055168152600185522091825461268b565b9055606060208901519801518651998a9960608b5260608b019061262a565b91898303908a015261262a565b93868503908701521698169561262a565b0390a48181156113de575b3390f1156113d357509273ffffffffffffffffffffffffffffffffffffffff6113c1936113cf969382999660017f9b779b17422d0df92223018b32b4d1fa46e071723d6817e2486d003becc55f005584519a8b9a168a52890152169086015260a0606086015260a085019061262a565b90838203608085015261262a565b0390f35b8451903d90823e3d90fd5b506108fc611351565b6024877f4e487b710000000000000000000000000000000000000000000000000000000081526011600452fd5b91505073ffffffffffffffffffffffffffffffffffffffff876001606496838516875252842054917f4f779ceb00000000000000000000000000000000000000000000000000000000855216600452602452604452fd5b6064868a51907f08c379a00000000000000000000000000000000000000000000000000000000082526004820152601d60248201527f496e73756666696369656e7420636f6e74726163742062616c616e63650000006044820152fd5b6024857f4e487b710000000000000000000000000000000000000000000000000000000081526011600452fd5b6115029195505f90612579565b5f936111f16111e5565b8a513d5f823e3d90fd5b5f80fd5b90508681813d8311611540575b6115318183612579565b8101031261151657515f611145565b503d611527565b985093508588813d811161157c575b6115608183612579565b81010312611516578261157289612698565b980151935f610e34565b503d611556565b86513d5f823e3d90fd5b925090508482813d81116115bf575b6115a68183612579565b81010312611516576115b88892612698565b905f610c46565b503d61159c565b88513d5f823e3d90fd5b7f4e487b71000000000000000000000000000000000000000000000000000000005f52604160045260245ffd5b60646040517f08c379a000000000000000000000000000000000000000000000000000000000815260206004820152601960248201527f496e76616c6964207375626d69747465722061646472657373000000000000006044820152fd5b60646040517f08c379a000000000000000000000000000000000000000000000000000000000815260206004820152600a60248201527f456d707479206e616d65000000000000000000000000000000000000000000006044820152fd5b60646040517f08c379a000000000000000000000000000000000000000000000000000000000815260206004820152601860248201527f496e76616c6964207265636569766572206164647265737300000000000000006044820152fd5b7f152bc288000000000000000000000000000000000000000000000000000000005f523360045260245ffd5b346115165760206003193601126115165773ffffffffffffffffffffffffffffffffffffffff611771612428565b165f526001602052606060405f20805490600260018201549101549060405192835260208301526040820152f35b34611516575f600319360112611516576113cf6040516117c0604082612579565b600581527f352e302e30000000000000000000000000000000000000000000000000000000602082015260405191829160208352602083019061262a565b34611516575f6003193601126115165761181661270c565b335f52600160205260405f20541561189d57610e10420180421161009957335f81815260016020818152604092839020909101849055905192835290917f43e8fb9d4f009c90c55a3fa108b177b794704d61af7af6f6512db7883f8ed8439190a260017f9b779b17422d0df92223018b32b4d1fa46e071723d6817e2486d003becc55f0055005b7fb38340cf000000000000000000000000000000000000000000000000000000005f523360045260245ffd5b34611516575f60031936011261151657602073ffffffffffffffffffffffffffffffffffffffff7f9016d09d72d40fdae2fd8ceac6b6234c7706214fd39c1cd1e609a0528c1993005416604051908152f35b34611516575f600319360112611516576020604051610e108152f35b34611516575f6003193601126115165761194f612783565b5f73ffffffffffffffffffffffffffffffffffffffff7f9016d09d72d40fdae2fd8ceac6b6234c7706214fd39c1cd1e609a0528c199300547fffffffffffffffffffffffff000000000000000000000000000000000000000081167f9016d09d72d40fdae2fd8ceac6b6234c7706214fd39c1cd1e609a0528c19930055167f8be0079c531659141344cd1fd0a4f28419497f9722a3daafe3b4186f6b6457e08280a3005b34611516575f60031936011261151657602073ffffffffffffffffffffffffffffffffffffffff5f5416604051908152f35b34611516575f6003193601126115165773ffffffffffffffffffffffffffffffffffffffff7f0000000000000000000000000000000000000000000000000000000000000000163003611a9c5760206040517f360894a13ba1a3210667c828492db98dca3e2076cc3735a920a3ca505d382bbc8152f35b7fe07c8dba000000000000000000000000000000000000000000000000000000005f5260045ffd5b604060031936011261151657611ad8612428565b60243567ffffffffffffffff8111611516573660238201121561151657611b099036906024816004013591016125f4565b73ffffffffffffffffffffffffffffffffffffffff7f000000000000000000000000000000000000000000000000000000000000000016803014908115611d9d575b50611a9c57611b58612783565b73ffffffffffffffffffffffffffffffffffffffff8216916040517f52d1902d000000000000000000000000000000000000000000000000000000008152602081600481875afa5f9181611d69575b50611bd857837f4c9c8ce3000000000000000000000000000000000000000000000000000000005f5260045260245ffd5b807f360894a13ba1a3210667c828492db98dca3e2076cc3735a920a3ca505d382bbc859203611d3e5750813b15611d1357807fffffffffffffffffffffffff00000000000000000000000000000000000000007f360894a13ba1a3210667c828492db98dca3e2076cc3735a920a3ca505d382bbc5416177f360894a13ba1a3210667c828492db98dca3e2076cc3735a920a3ca505d382bbc557fbc7cd75a20ee27fd9adebab32041f755214dbc6bffa90cc0225b39da2e5c2d3b5f80a2815115611ce2575f80836020611cd895519101845af43d15611cda573d91611cbc836125ba565b92611cca6040519485612579565b83523d5f602085013e61296a565b005b60609161296a565b505034611ceb57005b7fb398979f000000000000000000000000000000000000000000000000000000005f5260045ffd5b7f4c9c8ce3000000000000000000000000000000000000000000000000000000005f5260045260245ffd5b7faa1d49a4000000000000000000000000000000000000000000000000000000005f5260045260245ffd5b9091506020813d602011611d95575b81611d8560209383612579565b8101031261151657519085611ba7565b3d9150611d78565b905073ffffffffffffffffffffffffffffffffffffffff7f360894a13ba1a3210667c828492db98dca3e2076cc3735a920a3ca505d382bbc5416141583611b4b565b346115165760206003193601126115165773ffffffffffffffffffffffffffffffffffffffff611e0d612428565b165f5260016020526020600160405f200154604051908152f35b34611516575f60031936011261151657602073ffffffffffffffffffffffffffffffffffffffff601a5416604051908152f35b3461151657611e683661244b565b94907ff0c57e16840df040f15088dc2f81fe391c3923bec73e23a9662efc9c229c6a009492945460ff8160401c16159767ffffffffffffffff82168015908161222e575b6001149081612224575b15908161221b575b506121f357818960017fffffffffffffffffffffffffffffffffffffffffffffffff000000000000000073ffffffffffffffffffffffffffffffffffffffff9516177ff0c57e16840df040f15088dc2f81fe391c3923bec73e23a9662efc9c229c6a005561219e575b50169182156107405773ffffffffffffffffffffffffffffffffffffffff169283156106e15773ffffffffffffffffffffffffffffffffffffffff169384156106825773ffffffffffffffffffffffffffffffffffffffff169485156106235773ffffffffffffffffffffffffffffffffffffffff169586156105c45773ffffffffffffffffffffffffffffffffffffffff1690811561056557611fd590611fcd612913565b610285612913565b611fdd612913565b611fe5612913565b611fed612913565b60017f9b779b17422d0df92223018b32b4d1fa46e071723d6817e2486d003becc55f00557fffffffffffffffffffffffff00000000000000000000000000000000000000005f5416175f557fffffffffffffffffffffffff0000000000000000000000000000000000000000601a541617601a557fffffffffffffffffffffffff0000000000000000000000000000000000000000601b541617601b557fffffffffffffffffffffffff0000000000000000000000000000000000000000601c541617601c557fffffffffffffffffffffffff0000000000000000000000000000000000000000601d541617601d557fffffffffffffffffffffffff0000000000000000000000000000000000000000601e541617601e5561210b57005b7fffffffffffffffffffffffffffffffffffffffffffffff00ffffffffffffffff7ff0c57e16840df040f15088dc2f81fe391c3923bec73e23a9662efc9c229c6a0054167ff0c57e16840df040f15088dc2f81fe391c3923bec73e23a9662efc9c229c6a00557fc7f505b2f371ae2175ee4913f4499e1f2633a7b5936321eed1cdaeb6115181d2602060405160018152a1005b7fffffffffffffffffffffffffffffffffffffffffffffff0000000000000000001668010000000000000001177ff0c57e16840df040f15088dc2f81fe391c3923bec73e23a9662efc9c229c6a005589611f27565b7ff92ee8a9000000000000000000000000000000000000000000000000000000005f5260045ffd5b9050158a611ebe565b303b159150611eb6565b8a9150611eac565b346115165760206003193601126115165760043561225261270c565b335f52600160205260405f209081549181831061233b576001810190815480158015612332575b612303575061228a835f949561268b565b905555805f81156122fa575b5f80809381933390f1156122ef57337feaff4b37086828766ad3268786972c0cd24259d4c87a80f9d3963a3c3d999b0d5f80a360017f9b779b17422d0df92223018b32b4d1fa46e071723d6817e2486d003becc55f0055005b6040513d5f823e3d90fd5b506108fc612296565b7fbedc4e5a000000000000000000000000000000000000000000000000000000005f526004524260245260445ffd5b50428111612279565b50907f21c3d50f000000000000000000000000000000000000000000000000000000005f5260045260245260445ffd5b346115165760206003193601126115165773ffffffffffffffffffffffffffffffffffffffff612399612428565b165f526001602052602060405f2054604051908152f35b346115165760206003193601126115165773ffffffffffffffffffffffffffffffffffffffff6123de612428565b165f5260016020526020600260405f200154604051908152f35b34611516575f6003193601126115165760209073ffffffffffffffffffffffffffffffffffffffff601b54168152f35b6004359073ffffffffffffffffffffffffffffffffffffffff8216820361151657565b60031960e09101126115165760043573ffffffffffffffffffffffffffffffffffffffff81168103611516579060243573ffffffffffffffffffffffffffffffffffffffff81168103611516579060443573ffffffffffffffffffffffffffffffffffffffff81168103611516579060643573ffffffffffffffffffffffffffffffffffffffff81168103611516579060843573ffffffffffffffffffffffffffffffffffffffff81168103611516579060a43573ffffffffffffffffffffffffffffffffffffffff81168103611516579060c43573ffffffffffffffffffffffffffffffffffffffff811681036115165790565b6080810190811067ffffffffffffffff8211176115d057604052565b610220810190811067ffffffffffffffff8211176115d057604052565b90601f7fffffffffffffffffffffffffffffffffffffffffffffffffffffffffffffffe0910116810190811067ffffffffffffffff8211176115d057604052565b67ffffffffffffffff81116115d057601f017fffffffffffffffffffffffffffffffffffffffffffffffffffffffffffffffe01660200190565b929192612600826125ba565b9161260e6040519384612579565b829481845281830111611516578281602093845f960137010152565b907fffffffffffffffffffffffffffffffffffffffffffffffffffffffffffffffe0601f602080948051918291828752018686015e5f8582860101520116010190565b9080601f8301121561151657816020612688933591016125f4565b90565b9190820391821161009957565b519073ffffffffffffffffffffffffffffffffffffffff8216820361151657565b73ffffffffffffffffffffffffffffffffffffffff8116156126e0576126de906127ef565b565b7f1e4fbdf7000000000000000000000000000000000000000000000000000000005f525f60045260245ffd5b60027f9b779b17422d0df92223018b32b4d1fa46e071723d6817e2486d003becc55f00541461275b5760027f9b779b17422d0df92223018b32b4d1fa46e071723d6817e2486d003becc55f0055565b7f3ee5aeb5000000000000000000000000000000000000000000000000000000005f5260045ffd5b73ffffffffffffffffffffffffffffffffffffffff7f9016d09d72d40fdae2fd8ceac6b6234c7706214fd39c1cd1e609a0528c199300541633036127c357565b7f118cdaa7000000000000000000000000000000000000000000000000000000005f523360045260245ffd5b73ffffffffffffffffffffffffffffffffffffffff807f9016d09d72d40fdae2fd8ceac6b6234c7706214fd39c1cd1e609a0528c19930054921691827fffffffffffffffffffffffff00000000000000000000000000000000000000008216177f9016d09d72d40fdae2fd8ceac6b6234c7706214fd39c1cd1e609a0528c19930055167f8be0079c531659141344cd1fd0a4f28419497f9722a3daafe3b4186f6b6457e05f80a3565b604051906128a58261255c565b6060610200835f81525f60208201525f60408201525f838201525f60808201525f60a08201525f60c08201528260e08201525f6101008201525f6101208201525f6101408201525f6101608201525f6101808201525f6101a08201525f6101c08201525f6101e08201520152565b60ff7ff0c57e16840df040f15088dc2f81fe391c3923bec73e23a9662efc9c229c6a005460401c161561294257565b7fd7e6bcf8000000000000000000000000000000000000000000000000000000005f5260045ffd5b906129a7575080511561297f57805190602001fd5b7fd6bda275000000000000000000000000000000000000000000000000000000005f5260045ffd5b815115806129fa575b6129b8575090565b73ffffffffffffffffffffffffffffffffffffffff907f9996b315000000000000000000000000000000000000000000000000000000005f521660045260245ffd5b50803b156129b056fea264697066735822122046a33d70192d05b2864e74e1e7889e080de9fa0d43bd95faf44c5a35eb0baa5064736f6c634300081a0033","linkReferences":{}},"methodIdentifiers":{"IP_ASSET_REGISTRY()":"41c782c5","REGISTRATION_WORKFLOWS()":"0e59bdd8","UNLOCK_BLOCK_TIME()":"73e289d0","UPGRADE_INTERFACE_VERSION()":"ad3cb1cc","batcherWallet()":"58b96e27","initialize(address,address,address,address,address,address,address)":"35876476","lock()":"f83d08ba","owner()":"8da5cb5b","proxiableUUID()":"52d1902d","register(address,(string,string,string,string,string),string,address)":"d1b24ae1","reinitialize(address,address,address,address,address,address,address)":"d7d7166e","renounceOwnership()":"715018a6","transferOwnership(address)":"f2fde38b","unlock()":"a69df4b5","upgradeToAndCall(address,bytes)":"4f1ef286","userData(address)":"c8910913","user_balances(address)":"2df4e21e","user_nonces(address)":"17d89c4e","user_unlock_block(address)":"4d5431ea","withdraw(uint256)":"2e1a7d4d"},"id":120}