{"abi":[{"type":"constructor","inputs":[],"stateMutability":"nonpayable"},{"type":"function","name":"IP_ASSET_REGISTRY","inputs":[],"outputs":[{"name":"","type":"address","internalType":"contract IPAssetRegistry"}],"stateMutability":"view"},{"type":"function","name":"REGISTRATION_WORKFLOWS","inputs":[],"outputs":[{"name":"","type":"address","internalType":"contract RegistrationWorkflows"}],"stateMutability":"view"},{"type":"function","name":"UPGRADE_INTERFACE_VERSION","inputs":[],"outputs":[{"name":"","type":"string","internalType":"string"}],"stateMutability":"view"},{"type":"function","name":"initialize","inputs":[{"name":"ipAssetRegistryAddress","type":"address","internalType":"address"},{"name":"registrationWorkflowsAddress","type":"address","internalType":"address"},{"name":"owner","type":"address","internalType":"address"}],"outputs":[],"stateMutability":"nonpayable"},{"type":"function","name":"owner","inputs":[],"outputs":[{"name":"","type":"address","internalType":"address"}],"stateMutability":"view"},{"type":"function","name":"proxiableUUID","inputs":[],"outputs":[{"name":"","type":"bytes32","internalType":"bytes32"}],"stateMutability":"view"},{"type":"function","name":"register","inputs":[{"name":"receiver","type":"address","internalType":"address"},{"name":"_ipMetadata","type":"tuple","internalType":"struct ForgeRegistry.IPMetadata","components":[{"name":"name","type":"string","internalType":"string"},{"name":"ipMetadataURI","type":"string","internalType":"string"},{"name":"ipMetadata","type":"string","internalType":"string"},{"name":"nftMetadataURI","type":"string","internalType":"string"},{"name":"nftMetadata","type":"string","internalType":"string"}]},{"name":"appId","type":"string","internalType":"string"}],"outputs":[{"name":"ipId","type":"address","internalType":"address"},{"name":"tokenId","type":"uint256","internalType":"uint256"},{"name":"owner","type":"address","internalType":"address"}],"stateMutability":"nonpayable"},{"type":"function","name":"renounceOwnership","inputs":[],"outputs":[],"stateMutability":"nonpayable"},{"type":"function","name":"transferOwnership","inputs":[{"name":"newOwner","type":"address","internalType":"address"}],"outputs":[],"stateMutability":"nonpayable"},{"type":"function","name":"upgradeToAndCall","inputs":[{"name":"newImplementation","type":"address","internalType":"address"},{"name":"data","type":"bytes","internalType":"bytes"}],"outputs":[],"stateMutability":"payable"},{"type":"event","name":"IPRegistered","inputs":[{"name":"ipId","type":"address","indexed":true,"internalType":"address"},{"name":"tokenId","type":"uint256","indexed":true,"internalType":"uint256"},{"name":"owner","type":"address","indexed":true,"internalType":"address"},{"name":"ipMetadataURI","type":"string","indexed":false,"internalType":"string"},{"name":"nftMetadataURI","type":"string","indexed":false,"internalType":"string"},{"name":"appId","type":"string","indexed":false,"internalType":"string"}],"anonymous":false},{"type":"event","name":"Initialized","inputs":[{"name":"version","type":"uint64","indexed":false,"internalType":"uint64"}],"anonymous":false},{"type":"event","name":"OwnershipTransferred","inputs":[{"name":"previousOwner","type":"address","indexed":true,"internalType":"address"},{"name":"newOwner","type":"address","indexed":true,"internalType":"address"}],"anonymous":false},{"type":"event","name":"Upgraded","inputs":[{"name":"implementation","type":"address","indexed":true,"internalType":"address"}],"anonymous":false},{"type":"error","name":"AddressEmptyCode","inputs":[{"name":"target","type":"address","internalType":"address"}]},{"type":"error","name":"ERC1967InvalidImplementation","inputs":[{"name":"implementation","type":"address","internalType":"address"}]},{"type":"error","name":"ERC1967NonPayable","inputs":[]},{"type":"error","name":"FailedCall","inputs":[]},{"type":"error","name":"InvalidInitialization","inputs":[]},{"type":"error","name":"NotInitializing","inputs":[]},{"type":"error","name":"OwnableInvalidOwner","inputs":[{"name":"owner","type":"address","internalType":"address"}]},{"type":"error","name":"OwnableUnauthorizedAccount","inputs":[{"name":"account","type":"address","internalType":"address"}]},{"type":"error","name":"UUPSUnauthorizedCallContext","inputs":[]},{"type":"error","name":"UUPSUnsupportedProxiableUUID","inputs":[{"name":"slot","type":"bytes32","internalType":"bytes32"}]}],"bytecode":{"object":"0x60a060405230608052348015610013575f80fd5b5061001c610021565b6100d3565b7ff0c57e16840df040f15088dc2f81fe391c3923bec73e23a9662efc9c229c6a00805468010000000000000000900460ff16156100715760405163f92ee8a960e01b815260040160405180910390fd5b80546001600160401b03908116146100d05780546001600160401b0319166001600160401b0390811782556040519081527fc7f505b2f371ae2175ee4913f4499e1f2633a7b5936321eed1cdaeb6115181d29060200160405180910390a15b50565b60805161164c6100f95f395f81816108750152818161089e0152610abf015261164c5ff3fe6080604052600436106100ad575f3560e01c8063715018a611610066578063ad3cb1cc1161004c578063ad3cb1cc1461021c578063c0c53b8b14610271578063f2fde38b14610290575f80fd5b8063715018a6146101bf5780638da5cb5b146101d3575f80fd5b806341c782c51161009657806341c782c51461015d5780634f1ef2861461018857806352d1902d1461019d575f80fd5b80630e59bdd8146100b15780631cfbcfcc14610107575b5f80fd5b3480156100bc575f80fd5b506001546100dd9073ffffffffffffffffffffffffffffffffffffffff1681565b60405173ffffffffffffffffffffffffffffffffffffffff90911681526020015b60405180910390f35b348015610112575f80fd5b506101266101213660046110a3565b6102af565b6040805173ffffffffffffffffffffffffffffffffffffffff948516815260208101939093529216918101919091526060016100fe565b348015610168575f80fd5b505f546100dd9073ffffffffffffffffffffffffffffffffffffffff1681565b61019b6101963660046111f7565b6103d0565b005b3480156101a8575f80fd5b506101b16103ef565b6040519081526020016100fe565b3480156101ca575f80fd5b5061019b61041d565b3480156101de575f80fd5b507f9016d09d72d40fdae2fd8ceac6b6234c7706214fd39c1cd1e609a0528c1993005473ffffffffffffffffffffffffffffffffffffffff166100dd565b348015610227575f80fd5b506102646040518060400160405280600581526020017f352e302e3000000000000000000000000000000000000000000000000000000081525081565b6040516100fe91906112a3565b34801561027c575f80fd5b5061019b61028b3660046112b5565b610430565b34801561029b575f80fd5b5061019b6102aa3660046112fd565b61060c565b5f805f806102c0865f015188610674565b60015490915073ffffffffffffffffffffffffffffffffffffffff1663a392aa8682896102ec8a6107b6565b6040518463ffffffff1660e01b815260040161030a93929190611318565b60408051808303815f875af1158015610325573d5f803e3d5ffd5b505050506040513d601f19601f8201168201806040525081019061034991906113c9565b80945081955050508691508673ffffffffffffffffffffffffffffffffffffffff16838573ffffffffffffffffffffffffffffffffffffffff167f44874177fa70d91b3df35fc62739b47d20200a0c24135e12eedc5f73008b076689602001518a606001518a6040516103be939291906113f5565b60405180910390a45093509350939050565b6103d861085d565b6103e182610961565b6103eb8282610969565b5050565b5f6103f8610aa7565b507f360894a13ba1a3210667c828492db98dca3e2076cc3735a920a3ca505d382bbc90565b610425610b16565b61042e5f610ba4565b565b7ff0c57e16840df040f15088dc2f81fe391c3923bec73e23a9662efc9c229c6a00805468010000000000000000810460ff16159067ffffffffffffffff165f8115801561047a5750825b90505f8267ffffffffffffffff1660011480156104965750303b155b9050811580156104a4575080155b156104db576040517ff92ee8a900000000000000000000000000000000000000000000000000000000815260040160405180910390fd5b84547fffffffffffffffffffffffffffffffffffffffffffffffff0000000000000000166001178555831561053c5784547fffffffffffffffffffffffffffffffffffffffffffffff00ffffffffffffffff16680100000000000000001785555b61054586610c39565b61054d610c4a565b5f805473ffffffffffffffffffffffffffffffffffffffff808b167fffffffffffffffffffffffff00000000000000000000000000000000000000009283161790925560018054928a169290911691909117905583156106025784547fffffffffffffffffffffffffffffffffffffffffffffff00ffffffffffffffff168555604051600181527fc7f505b2f371ae2175ee4913f4499e1f2633a7b5936321eed1cdaeb6115181d29060200160405180910390a15b5050505050505050565b610614610b16565b73ffffffffffffffffffffffffffffffffffffffff8116610668576040517f1e4fbdf70000000000000000000000000000000000000000000000000000000081525f60048201526024015b60405180910390fd5b61067181610ba4565b50565b60018054604080516101608101825285815281518083018352600581527f494e474f5400000000000000000000000000000000000000000000000000000060208281019190915280830191909152825180820184525f808252838501919091528351918201845280825260608301919091526064608083015260a0820181905260c0820181905273ffffffffffffffffffffffffffffffffffffffff86811660e08401819052610100840152610120830186905261014083019590955291517fe80fe52f00000000000000000000000000000000000000000000000000000000815291939092169163e80fe52f9161076f9190600401611437565b6020604051808303815f875af115801561078b573d5f803e3d5ffd5b505050506040513d601f19601f820116820180604052508101906107af91906115c2565b9392505050565b6040805160808101825260608082525f60208301819052928201819052810191909152604051806080016040528083602001518152602001836040015160405160200161080391906115f4565b60405160208183030381529060405280519060200120815260200183606001518152602001836080015160405160200161083d91906115f4565b604051602081830303815290604052805190602001208152509050919050565b3073ffffffffffffffffffffffffffffffffffffffff7f000000000000000000000000000000000000000000000000000000000000000016148061092a57507f000000000000000000000000000000000000000000000000000000000000000073ffffffffffffffffffffffffffffffffffffffff166109117f360894a13ba1a3210667c828492db98dca3e2076cc3735a920a3ca505d382bbc5473ffffffffffffffffffffffffffffffffffffffff1690565b73ffffffffffffffffffffffffffffffffffffffff1614155b1561042e576040517fe07c8dba00000000000000000000000000000000000000000000000000000000815260040160405180910390fd5b610671610b16565b8173ffffffffffffffffffffffffffffffffffffffff166352d1902d6040518163ffffffff1660e01b8152600401602060405180830381865afa9250505080156109ee575060408051601f3d9081017fffffffffffffffffffffffffffffffffffffffffffffffffffffffffffffffe01682019092526109eb918101906115ff565b60015b610a3c576040517f4c9c8ce300000000000000000000000000000000000000000000000000000000815273ffffffffffffffffffffffffffffffffffffffff8316600482015260240161065f565b7f360894a13ba1a3210667c828492db98dca3e2076cc3735a920a3ca505d382bbc8114610a98576040517faa1d49a40000000000000000000000000000000000000000000000000000000081526004810182905260240161065f565b610aa28383610c52565b505050565b3073ffffffffffffffffffffffffffffffffffffffff7f0000000000000000000000000000000000000000000000000000000000000000161461042e576040517fe07c8dba00000000000000000000000000000000000000000000000000000000815260040160405180910390fd5b33610b557f9016d09d72d40fdae2fd8ceac6b6234c7706214fd39c1cd1e609a0528c1993005473ffffffffffffffffffffffffffffffffffffffff1690565b73ffffffffffffffffffffffffffffffffffffffff161461042e576040517f118cdaa700000000000000000000000000000000000000000000000000000000815233600482015260240161065f565b7f9016d09d72d40fdae2fd8ceac6b6234c7706214fd39c1cd1e609a0528c19930080547fffffffffffffffffffffffff0000000000000000000000000000000000000000811673ffffffffffffffffffffffffffffffffffffffff848116918217845560405192169182907f8be0079c531659141344cd1fd0a4f28419497f9722a3daafe3b4186f6b6457e0905f90a3505050565b610c41610cb4565b61067181610d1b565b61042e610cb4565b610c5b82610d23565b60405173ffffffffffffffffffffffffffffffffffffffff8316907fbc7cd75a20ee27fd9adebab32041f755214dbc6bffa90cc0225b39da2e5c2d3b905f90a2805115610cac57610aa28282610df1565b6103eb610e70565b7ff0c57e16840df040f15088dc2f81fe391c3923bec73e23a9662efc9c229c6a005468010000000000000000900460ff1661042e576040517fd7e6bcf800000000000000000000000000000000000000000000000000000000815260040160405180910390fd5b610614610cb4565b8073ffffffffffffffffffffffffffffffffffffffff163b5f03610d8b576040517f4c9c8ce300000000000000000000000000000000000000000000000000000000815273ffffffffffffffffffffffffffffffffffffffff8216600482015260240161065f565b7f360894a13ba1a3210667c828492db98dca3e2076cc3735a920a3ca505d382bbc80547fffffffffffffffffffffffff00000000000000000000000000000000000000001673ffffffffffffffffffffffffffffffffffffffff92909216919091179055565b60605f808473ffffffffffffffffffffffffffffffffffffffff1684604051610e1a91906115f4565b5f60405180830381855af49150503d805f8114610e52576040519150601f19603f3d011682016040523d82523d5f602084013e610e57565b606091505b5091509150610e67858383610ea8565b95945050505050565b341561042e576040517fb398979f00000000000000000000000000000000000000000000000000000000815260040160405180910390fd5b606082610ebd57610eb882610f37565b6107af565b8151158015610ee1575073ffffffffffffffffffffffffffffffffffffffff84163b155b15610f30576040517f9996b31500000000000000000000000000000000000000000000000000000000815273ffffffffffffffffffffffffffffffffffffffff8516600482015260240161065f565b5092915050565b805115610f475780518082602001fd5b6040517fd6bda27500000000000000000000000000000000000000000000000000000000815260040160405180910390fd5b73ffffffffffffffffffffffffffffffffffffffff81168114610671575f80fd5b7f4e487b71000000000000000000000000000000000000000000000000000000005f52604160045260245ffd5b60405160a0810167ffffffffffffffff81118282101715610fea57610fea610f9a565b60405290565b5f8067ffffffffffffffff84111561100a5761100a610f9a565b506040517fffffffffffffffffffffffffffffffffffffffffffffffffffffffffffffffe0601f85018116603f0116810181811067ffffffffffffffff8211171561105757611057610f9a565b60405283815290508082840185101561106e575f80fd5b838360208301375f60208583010152509392505050565b5f82601f830112611094575f80fd5b6107af83833560208501610ff0565b5f805f606084860312156110b5575f80fd5b83356110c081610f79565b9250602084013567ffffffffffffffff8111156110db575f80fd5b840160a081870312156110ec575f80fd5b6110f4610fc7565b813567ffffffffffffffff81111561110a575f80fd5b61111688828501611085565b825250602082013567ffffffffffffffff811115611132575f80fd5b61113e88828501611085565b602083015250604082013567ffffffffffffffff81111561115d575f80fd5b61116988828501611085565b604083015250606082013567ffffffffffffffff811115611188575f80fd5b61119488828501611085565b606083015250608082013567ffffffffffffffff8111156111b3575f80fd5b6111bf88828501611085565b608083015250925050604084013567ffffffffffffffff8111156111e1575f80fd5b6111ed86828701611085565b9150509250925092565b5f8060408385031215611208575f80fd5b823561121381610f79565b9150602083013567ffffffffffffffff81111561122e575f80fd5b8301601f8101851361123e575f80fd5b61124d85823560208401610ff0565b9150509250929050565b5f81518084528060208401602086015e5f6020828601015260207fffffffffffffffffffffffffffffffffffffffffffffffffffffffffffffffe0601f83011685010191505092915050565b602081525f6107af6020830184611257565b5f805f606084860312156112c7575f80fd5b83356112d281610f79565b925060208401356112e281610f79565b915060408401356112f281610f79565b809150509250925092565b5f6020828403121561130d575f80fd5b81356107af81610f79565b73ffffffffffffffffffffffffffffffffffffffff8416815273ffffffffffffffffffffffffffffffffffffffff83166020820152606060408201525f82516080606084015261136b60e0840182611257565b90506020840151608084015260408401517fffffffffffffffffffffffffffffffffffffffffffffffffffffffffffffffa08483030160a08501526113b08282611257565b915050606084015160c084015280915050949350505050565b5f80604083850312156113da575f80fd5b82516113e581610f79565b6020939093015192949293505050565b606081525f6114076060830186611257565b82810360208401526114198186611257565b9050828103604084015261142d8185611257565b9695505050505050565b602081525f82516101606020840152611454610180840182611257565b905060208401517fffffffffffffffffffffffffffffffffffffffffffffffffffffffffffffffe084830301604085015261148f8282611257565b91505060408401517fffffffffffffffffffffffffffffffffffffffffffffffffffffffffffffffe08483030160608501526114cb8282611257565b91505060608401517fffffffffffffffffffffffffffffffffffffffffffffffffffffffffffffffe08483030160808501526115078282611257565b915050608084015161152160a085018263ffffffff169052565b5060a084015160c084015260c084015161155360e085018273ffffffffffffffffffffffffffffffffffffffff169052565b5060e084015173ffffffffffffffffffffffffffffffffffffffff81166101008501525061010084015173ffffffffffffffffffffffffffffffffffffffff81166101208501525061012084015180151561014085015250610140840151801515610160850152509392505050565b5f602082840312156115d2575f80fd5b81516107af81610f79565b5f81518060208401855e5f93019283525090919050565b5f6107af82846115dd565b5f6020828403121561160f575f80fd5b505191905056fea264697066735822122082ba019d073003c624106080a6a66f10960d42c426f30b4cdc79bc80a66d1a2c64736f6c634300081a0033","linkReferences":{}},"methodIdentifiers":{"IP_ASSET_REGISTRY()":"41c782c5","REGISTRATION_WORKFLOWS()":"0e59bdd8","UPGRADE_INTERFACE_VERSION()":"ad3cb1cc","initialize(address,address,address)":"c0c53b8b","owner()":"8da5cb5b","proxiableUUID()":"52d1902d","register(address,(string,string,string,string,string),string)":"1cfbcfcc","renounceOwnership()":"715018a6","transferOwnership(address)":"f2fde38b","upgradeToAndCall(address,bytes)":"4f1ef286"},"id":101}