{"abi":[{"type":"constructor","inputs":[{"name":"ipAssetRegistryAddress","type":"address","internalType":"address"},{"name":"registrationWorkflowsAddress","type":"address","internalType":"address"}],"stateMutability":"nonpayable"},{"type":"function","name":"IP_ASSET_REGISTRY","inputs":[],"outputs":[{"name":"","type":"address","internalType":"contract IPAssetRegistry"}],"stateMutability":"view"},{"type":"function","name":"REGISTRATION_WORKFLOWS","inputs":[],"outputs":[{"name":"","type":"address","internalType":"contract RegistrationWorkflows"}],"stateMutability":"view"},{"type":"function","name":"register","inputs":[{"name":"receiver","type":"address","internalType":"address"},{"name":"_ipMetadata","type":"tuple","internalType":"struct ForgeRegistrar.IPMetadata","components":[{"name":"name","type":"string","internalType":"string"},{"name":"ipMetadataURI","type":"string","internalType":"string"},{"name":"ipMetadata","type":"string","internalType":"string"},{"name":"nftMetadataURI","type":"string","internalType":"string"},{"name":"nftMetadata","type":"string","internalType":"string"}]},{"name":"appId","type":"string","internalType":"string"}],"outputs":[{"name":"ipId","type":"address","internalType":"address"},{"name":"tokenId","type":"uint256","internalType":"uint256"},{"name":"owner","type":"address","internalType":"address"}],"stateMutability":"nonpayable"},{"type":"event","name":"IPRegistered","inputs":[{"name":"ipId","type":"address","indexed":true,"internalType":"address"},{"name":"tokenId","type":"uint256","indexed":true,"internalType":"uint256"},{"name":"owner","type":"address","indexed":true,"internalType":"address"},{"name":"ipMetadataURI","type":"string","indexed":false,"internalType":"string"},{"name":"nftMetadataURI","type":"string","indexed":false,"internalType":"string"},{"name":"appId","type":"string","indexed":false,"internalType":"string"}],"anonymous":false}],"bytecode":{"object":"0x60c0604052348015600e575f80fd5b50604051610afe380380610afe833981016040819052602b91605b565b6001600160a01b039182166080521660a0526087565b80516001600160a01b03811681146056575f80fd5b919050565b5f8060408385031215606b575f80fd5b6072836041565b9150607e602084016041565b90509250929050565b60805160a051610a4a6100b45f395f818160480152818161011a015261024601525f60e30152610a4a5ff3fe608060405234801561000f575f80fd5b506004361061003f575f3560e01c80630e59bdd8146100435780631cfbcfcc1461009457806341c782c5146100de575b5f80fd5b61006a7f000000000000000000000000000000000000000000000000000000000000000081565b60405173ffffffffffffffffffffffffffffffffffffffff90911681526020015b60405180910390f35b6100a76100a2366004610599565b610105565b6040805173ffffffffffffffffffffffffffffffffffffffff9485168152602081019390935292169181019190915260600161008b565b61006a7f000000000000000000000000000000000000000000000000000000000000000081565b5f805f80610116865f015188610243565b90507f000000000000000000000000000000000000000000000000000000000000000073ffffffffffffffffffffffffffffffffffffffff1663a392aa86828961015f8a6103cf565b6040518463ffffffff1660e01b815260040161017d93929190610739565b60408051808303815f875af1158015610198573d5f803e3d5ffd5b505050506040513d601f19601f820116820180604052508101906101bc91906107ea565b80945081955050508691508673ffffffffffffffffffffffffffffffffffffffff16838573ffffffffffffffffffffffffffffffffffffffff167f44874177fa70d91b3df35fc62739b47d20200a0c24135e12eedc5f73008b076689602001518a606001518a60405161023193929190610816565b60405180910390a45093509350939050565b5f7f000000000000000000000000000000000000000000000000000000000000000073ffffffffffffffffffffffffffffffffffffffff1663e80fe52f6040518061016001604052808681526020016040518060400160405280600881526020017f466f726765495041000000000000000000000000000000000000000000000000815250815260200160405180602001604052805f815250815260200160405180602001604052805f8152508152602001606463ffffffff1681526020015f81526020015f73ffffffffffffffffffffffffffffffffffffffff1681526020018573ffffffffffffffffffffffffffffffffffffffff1681526020018573ffffffffffffffffffffffffffffffffffffffff168152602001600115158152602001600115158152506040518263ffffffff1660e01b81526004016103889190610858565b6020604051808303815f875af11580156103a4573d5f803e3d5ffd5b505050506040513d601f19601f820116820180604052508101906103c891906109e3565b9392505050565b6040805160808101825260608082525f60208301819052928201819052810191909152604051806080016040528083602001518152602001836040015160405160200161041c91906109fe565b60405160208183030381529060405280519060200120815260200183606001518152602001836080015160405160200161045691906109fe565b604051602081830303815290604052805190602001208152509050919050565b73ffffffffffffffffffffffffffffffffffffffff81168114610497575f80fd5b50565b7f4e487b71000000000000000000000000000000000000000000000000000000005f52604160045260245ffd5b60405160a0810167ffffffffffffffff811182821017156104ea576104ea61049a565b60405290565b5f82601f8301126104ff575f80fd5b813567ffffffffffffffff8111156105195761051961049a565b604051601f82017fffffffffffffffffffffffffffffffffffffffffffffffffffffffffffffffe0908116603f0116810167ffffffffffffffff811182821017156105665761056661049a565b60405281815283820160200185101561057d575f80fd5b816020850160208301375f918101602001919091529392505050565b5f805f606084860312156105ab575f80fd5b83356105b681610476565b9250602084013567ffffffffffffffff8111156105d1575f80fd5b840160a081870312156105e2575f80fd5b6105ea6104c7565b813567ffffffffffffffff811115610600575f80fd5b61060c888285016104f0565b825250602082013567ffffffffffffffff811115610628575f80fd5b610634888285016104f0565b602083015250604082013567ffffffffffffffff811115610653575f80fd5b61065f888285016104f0565b604083015250606082013567ffffffffffffffff81111561067e575f80fd5b61068a888285016104f0565b606083015250608082013567ffffffffffffffff8111156106a9575f80fd5b6106b5888285016104f0565b608083015250925050604084013567ffffffffffffffff8111156106d7575f80fd5b6106e3868287016104f0565b9150509250925092565b5f81518084528060208401602086015e5f6020828601015260207fffffffffffffffffffffffffffffffffffffffffffffffffffffffffffffffe0601f83011685010191505092915050565b73ffffffffffffffffffffffffffffffffffffffff8416815273ffffffffffffffffffffffffffffffffffffffff83166020820152606060408201525f82516080606084015261078c60e08401826106ed565b90506020840151608084015260408401517fffffffffffffffffffffffffffffffffffffffffffffffffffffffffffffffa08483030160a08501526107d182826106ed565b915050606084015160c084015280915050949350505050565b5f80604083850312156107fb575f80fd5b825161080681610476565b6020939093015192949293505050565b606081525f61082860608301866106ed565b828103602084015261083a81866106ed565b9050828103604084015261084e81856106ed565b9695505050505050565b602081525f825161016060208401526108756101808401826106ed565b905060208401517fffffffffffffffffffffffffffffffffffffffffffffffffffffffffffffffe08483030160408501526108b082826106ed565b91505060408401517fffffffffffffffffffffffffffffffffffffffffffffffffffffffffffffffe08483030160608501526108ec82826106ed565b91505060608401517fffffffffffffffffffffffffffffffffffffffffffffffffffffffffffffffe084830301608085015261092882826106ed565b915050608084015161094260a085018263ffffffff169052565b5060a084015160c084015260c084015161097460e085018273ffffffffffffffffffffffffffffffffffffffff169052565b5060e084015173ffffffffffffffffffffffffffffffffffffffff81166101008501525061010084015173ffffffffffffffffffffffffffffffffffffffff81166101208501525061012084015180151561014085015250610140840151801515610160850152509392505050565b5f602082840312156109f3575f80fd5b81516103c881610476565b5f82518060208501845e5f92019182525091905056fea2646970667358221220e4d6f657bda81aadbc32cba3442301964e50f606e5a4e3899a38f2ee07fa263b64736f6c634300081a0033","linkReferences":{}},"methodIdentifiers":{"IP_ASSET_REGISTRY()":"41c782c5","REGISTRATION_WORKFLOWS()":"0e59bdd8","register(address,(string,string,string,string,string),string)":"1cfbcfcc"},"id":99}