{"abi":[{"type":"constructor","inputs":[{"name":"ipAssetRegistryAddress","type":"address","internalType":"address"},{"name":"registrationWorkflowsAddress","type":"address","internalType":"address"}],"stateMutability":"nonpayable"},{"type":"function","name":"IP_ASSET_REGISTRY","inputs":[],"outputs":[{"name":"","type":"address","internalType":"contract IPAssetRegistry"}],"stateMutability":"view"},{"type":"function","name":"REGISTRATION_WORKFLOWS","inputs":[],"outputs":[{"name":"","type":"address","internalType":"contract RegistrationWorkflows"}],"stateMutability":"view"},{"type":"function","name":"register","inputs":[{"name":"_address","type":"address","internalType":"address"},{"name":"_ipMetadata","type":"tuple","internalType":"struct IPARegistrar.IPMetadata","components":[{"name":"name","type":"string","internalType":"string"},{"name":"ipMetadataURI","type":"string","internalType":"string"},{"name":"ipMetadata","type":"string","internalType":"string"},{"name":"nftMetadataURI","type":"string","internalType":"string"},{"name":"nftMetadata","type":"string","internalType":"string"}]}],"outputs":[{"name":"","type":"address","internalType":"address"}],"stateMutability":"nonpayable"}],"bytecode":{"object":"0x60c0604052348015600e575f80fd5b506040516109dd3803806109dd833981016040819052602b91605b565b6001600160a01b039182166080521660a0526087565b80516001600160a01b03811681146056575f80fd5b919050565b5f8060408385031215606b575f80fd5b6072836041565b9150607e602084016041565b90509250929050565b60805160a05161092a6100b35f395f818160480152818160e1015261019001525f60ab015261092a5ff3fe608060405234801561000f575f80fd5b506004361061003f575f3560e01c80630e59bdd81461004357806334244d781461009357806341c782c5146100a6575b5f80fd5b61006a7f000000000000000000000000000000000000000000000000000000000000000081565b60405173ffffffffffffffffffffffffffffffffffffffff909116815260200160405180910390f35b61006a6100a13660046104e2565b6100cd565b61006a7f000000000000000000000000000000000000000000000000000000000000000081565b5f806100dc835f01518561018d565b90505f7f000000000000000000000000000000000000000000000000000000000000000073ffffffffffffffffffffffffffffffffffffffff1663a392aa86838761012688610318565b6040518463ffffffff1660e01b81526004016101449392919061065b565b60408051808303815f875af115801561015f573d5f803e3d5ffd5b505050506040513d601f19601f82011682018060405250810190610183919061070c565b5095945050505050565b5f7f000000000000000000000000000000000000000000000000000000000000000073ffffffffffffffffffffffffffffffffffffffff1663e80fe52f6040518061016001604052808681526020016040518060400160405280600381526020017f4950410000000000000000000000000000000000000000000000000000000000815250815260200160405180602001604052805f815250815260200160405180602001604052805f8152508152602001606463ffffffff1681526020015f81526020015f73ffffffffffffffffffffffffffffffffffffffff1681526020018573ffffffffffffffffffffffffffffffffffffffff1681526020018573ffffffffffffffffffffffffffffffffffffffff1681526020016001151581526020015f15158152506040518263ffffffff1660e01b81526004016102d19190610738565b6020604051808303815f875af11580156102ed573d5f803e3d5ffd5b505050506040513d601f19601f8201168201806040525081019061031191906108c3565b9392505050565b6040805160808101825260608082525f60208301819052928201819052810191909152604051806080016040528083602001518152602001836040015160405160200161036591906108de565b60405160208183030381529060405280519060200120815260200183606001518152602001836080015160405160200161039f91906108de565b604051602081830303815290604052805190602001208152509050919050565b73ffffffffffffffffffffffffffffffffffffffff811681146103e0575f80fd5b50565b7f4e487b71000000000000000000000000000000000000000000000000000000005f52604160045260245ffd5b60405160a0810167ffffffffffffffff81118282101715610433576104336103e3565b60405290565b5f82601f830112610448575f80fd5b813567ffffffffffffffff811115610462576104626103e3565b604051601f82017fffffffffffffffffffffffffffffffffffffffffffffffffffffffffffffffe0908116603f0116810167ffffffffffffffff811182821017156104af576104af6103e3565b6040528181528382016020018510156104c6575f80fd5b816020850160208301375f918101602001919091529392505050565b5f80604083850312156104f3575f80fd5b82356104fe816103bf565b9150602083013567ffffffffffffffff811115610519575f80fd5b830160a0818603121561052a575f80fd5b610532610410565b813567ffffffffffffffff811115610548575f80fd5b61055487828501610439565b825250602082013567ffffffffffffffff811115610570575f80fd5b61057c87828501610439565b602083015250604082013567ffffffffffffffff81111561059b575f80fd5b6105a787828501610439565b604083015250606082013567ffffffffffffffff8111156105c6575f80fd5b6105d287828501610439565b606083015250608082013567ffffffffffffffff8111156105f1575f80fd5b6105fd87828501610439565b60808301525080925050509250929050565b5f81518084528060208401602086015e5f6020828601015260207fffffffffffffffffffffffffffffffffffffffffffffffffffffffffffffffe0601f83011685010191505092915050565b73ffffffffffffffffffffffffffffffffffffffff8416815273ffffffffffffffffffffffffffffffffffffffff83166020820152606060408201525f8251608060608401526106ae60e084018261060f565b90506020840151608084015260408401517fffffffffffffffffffffffffffffffffffffffffffffffffffffffffffffffa08483030160a08501526106f3828261060f565b915050606084015160c084015280915050949350505050565b5f806040838503121561071d575f80fd5b8251610728816103bf565b6020939093015192949293505050565b602081525f8251610160602084015261075561018084018261060f565b905060208401517fffffffffffffffffffffffffffffffffffffffffffffffffffffffffffffffe0848303016040850152610790828261060f565b91505060408401517fffffffffffffffffffffffffffffffffffffffffffffffffffffffffffffffe08483030160608501526107cc828261060f565b91505060608401517fffffffffffffffffffffffffffffffffffffffffffffffffffffffffffffffe0848303016080850152610808828261060f565b915050608084015161082260a085018263ffffffff169052565b5060a084015160c084015260c084015161085460e085018273ffffffffffffffffffffffffffffffffffffffff169052565b5060e084015173ffffffffffffffffffffffffffffffffffffffff81166101008501525061010084015173ffffffffffffffffffffffffffffffffffffffff81166101208501525061012084015180151561014085015250610140840151801515610160850152509392505050565b5f602082840312156108d3575f80fd5b8151610311816103bf565b5f82518060208501845e5f92019182525091905056fea26469706673582212207cfce1074692e0c7323b760a4078d2baa8350fd9b1eb3114bb2ebedd63a480b864736f6c634300081a0033","linkReferences":{}},"methodIdentifiers":{"IP_ASSET_REGISTRY()":"41c782c5","REGISTRATION_WORKFLOWS()":"0e59bdd8","register(address,(string,string,string,string,string))":"34244d78"},"id":99}